{"contracts/verifier.sol":{"Groth16Verifier":{"abi":[{"inputs":[{"internalType":"uint256[2]","name":"_pA","type":"uint256[2]"},{"internalType":"uint256[2][2]","name":"_pB","type":"uint256[2][2]"},{"internalType":"uint256[2]","name":"_pC","type":"uint256[2]"},{"internalType":"uint256[3]","name":"_pubSignals","type":"uint256[3]"}],"name":"verifyProof","outputs":[{"internalType":"bool","name":"","type":"bool"}],"stateMutability":"view","type":"function"}],"evm":{"bytecode":{"linkReferences":{},"object":"6080604052348015600f57600080fd5b506104318061001f6000396000f3fe608060405234801561001057600080fd5b506004361061002b5760003560e01c806311479fea14610030575b600080fd5b61004a6004803603810190610045919061035c565b610060565b60405161005791906103e0565b60405180910390f35b600060019050949350505050565b6000604051905090565b600080fd5b600080fd5b6000601f19601f8301169050919050565b7f4e487b7100000000000000000000000000000000000000000000000000000000600052604160045260246000fd5b6100cb82610082565b810181811067ffffffffffffffff821117156100ea576100e9610093565b5b80604052505050565b60006100fd61006e565b905061010982826100c2565b919050565b600067ffffffffffffffff82111561012957610128610093565b5b602082029050919050565b600080fd5b6000819050919050565b61014c81610139565b811461015757600080fd5b50565b60008135905061016981610143565b92915050565b600061018261017d8461010e565b6100f3565b9050806020840283018581111561019c5761019b610134565b5b835b818110156101c557806101b1888261015a565b84526020840193505060208101905061019e565b5050509392505050565b600082601f8301126101e4576101e361007d565b5b60026101f184828561016f565b91505092915050565b600067ffffffffffffffff82111561021557610214610093565b5b602082029050919050565b600061023361022e846101fa565b6100f3565b9050806040840283018581111561024d5761024c610134565b5b835b81811015610276578061026288826101cf565b84526020840193505060408101905061024f565b5050509392505050565b600082601f8301126102955761029461007d565b5b60026102a2848285610220565b91505092915050565b600067ffffffffffffffff8211156102c6576102c5610093565b5b602082029050919050565b60006102e46102df846102ab565b6100f3565b905080602084028301858111156102fe576102fd610134565b5b835b818110156103275780610313888261015a565b845260208401935050602081019050610300565b5050509392505050565b600082601f8301126103465761034561007d565b5b60036103538482856102d1565b91505092915050565b600080600080610160858703121561037757610376610078565b5b6000610385878288016101cf565b945050604061039687828801610280565b93505060c06103a7878288016101cf565b9250506101006103b987828801610331565b91505092959194509250565b60008115159050919050565b6103da816103c5565b82525050565b60006020820190506103f560008301846103d1565b9291505056fea26469706673582212201365d739c6ce717448c9a51b51dab4630f35699e7f87cd2ab4e3ea2efe8e96b464736f6c634300081c0033","opcodes":"PUSH1 0x80 PUSH1 0x40 MSTORE CALLVALUE DUP1 ISZERO PUSH1 0xF JUMPI PUSH1 0x0 DUP1 REVERT JUMPDEST POP PUSH2 0x431 DUP1 PUSH2 0x1F PUSH1 0x0 CODECOPY PUSH1 0x0 RETURN INVALID PUSH1 0x80 PUSH1 0x40 MSTORE CALLVALUE DUP1 ISZERO PUSH2 0x10 JUMPI PUSH1 0x0 DUP1 REVERT JUMPDEST POP PUSH1 0x4 CALLDATASIZE LT PUSH2 0x2B JUMPI PUSH1 0x0 CALLDATALOAD PUSH1 0xE0 SHR DUP1 PUSH4 0x11479FEA EQ PUSH2 0x30 JUMPI JUMPDEST PUSH1 0x0 DUP1 REVERT JUMPDEST PUSH2 0x4A PUSH1 0x4 DUP1 CALLDATASIZE SUB DUP2 ADD SWAP1 PUSH2 0x45 SWAP2 SWAP1 PUSH2 0x35C JUMP JUMPDEST PUSH2 0x60 JUMP JUMPDEST PUSH1 0x40 MLOAD PUSH2 0x57 SWAP2 SWAP1 PUSH2 0x3E0 JUMP JUMPDEST PUSH1 0x40 MLOAD DUP1 SWAP2 SUB SWAP1 RETURN JUMPDEST PUSH1 0x0 PUSH1 0x1 SWAP1 POP SWAP5 SWAP4 POP POP POP POP JUMP JUMPDEST PUSH1 0x0 PUSH1 0x40 MLOAD SWAP1 POP SWAP1 JUMP JUMPDEST PUSH1 0x0 DUP1 REVERT JUMPDEST PUSH1 0x0 DUP1 REVERT JUMPDEST PUSH1 0x0 PUSH1 0x1F NOT PUSH1 0x1F DUP4 ADD AND SWAP1 POP SWAP2 SWAP1 POP JUMP JUMPDEST PUSH32 0x4E487B7100000000000000000000000000000000000000000000000000000000 PUSH1 0x0 MSTORE PUSH1 0x41 PUSH1 0x4 MSTORE PUSH1 0x24 PUSH1 0x0 REVERT JUMPDEST PUSH2 0xCB DUP3 PUSH2 0x82 JUMP JUMPDEST DUP2 ADD DUP2 DUP2 LT PUSH8 0xFFFFFFFFFFFFFFFF DUP3 GT OR ISZERO PUSH2 0xEA JUMPI PUSH2 0xE9 PUSH2 0x93 JUMP JUMPDEST JUMPDEST DUP1 PUSH1 0x40 MSTORE POP POP POP JUMP JUMPDEST PUSH1 0x0 PUSH2 0xFD PUSH2 0x6E JUMP JUMPDEST SWAP1 POP PUSH2 0x109 DUP3 DUP3 PUSH2 0xC2 JUMP JUMPDEST SWAP2 SWAP1 POP JUMP JUMPDEST PUSH1 0x0 PUSH8 0xFFFFFFFFFFFFFFFF DUP3 GT ISZERO PUSH2 0x129 JUMPI PUSH2 0x128 PUSH2 0x93 JUMP JUMPDEST JUMPDEST PUSH1 0x20 DUP3 MUL SWAP1 POP SWAP2 SWAP1 POP JUMP JUMPDEST PUSH1 0x0 DUP1 REVERT JUMPDEST PUSH1 0x0 DUP2 SWAP1 POP SWAP2 SWAP1 POP JUMP JUMPDEST PUSH2 0x14C DUP2 PUSH2 0x139 JUMP JUMPDEST DUP2 EQ PUSH2 0x157 JUMPI PUSH1 0x0 DUP1 REVERT JUMPDEST POP JUMP JUMPDEST PUSH1 0x0 DUP2 CALLDATALOAD SWAP1 POP PUSH2 0x169 DUP2 PUSH2 0x143 JUMP JUMPDEST SWAP3 SWAP2 POP POP JUMP JUMPDEST PUSH1 0x0 PUSH2 0x182 PUSH2 0x17D DUP5 PUSH2 0x10E JUMP JUMPDEST PUSH2 0xF3 JUMP JUMPDEST SWAP1 POP DUP1 PUSH1 0x20 DUP5 MUL DUP4 ADD DUP6 DUP2 GT ISZERO PUSH2 0x19C JUMPI PUSH2 0x19B PUSH2 0x134 JUMP JUMPDEST JUMPDEST DUP4 JUMPDEST DUP2 DUP2 LT ISZERO PUSH2 0x1C5 JUMPI DUP1 PUSH2 0x1B1 DUP9 DUP3 PUSH2 0x15A JUMP JUMPDEST DUP5 MSTORE PUSH1 0x20 DUP5 ADD SWAP4 POP POP PUSH1 0x20 DUP2 ADD SWAP1 POP PUSH2 0x19E JUMP JUMPDEST POP POP POP SWAP4 SWAP3 POP POP POP JUMP JUMPDEST PUSH1 0x0 DUP3 PUSH1 0x1F DUP4 ADD SLT PUSH2 0x1E4 JUMPI PUSH2 0x1E3 PUSH2 0x7D JUMP JUMPDEST JUMPDEST PUSH1 0x2 PUSH2 0x1F1 DUP5 DUP3 DUP6 PUSH2 0x16F JUMP JUMPDEST SWAP2 POP POP SWAP3 SWAP2 POP POP JUMP JUMPDEST PUSH1 0x0 PUSH8 0xFFFFFFFFFFFFFFFF DUP3 GT ISZERO PUSH2 0x215 JUMPI PUSH2 0x214 PUSH2 0x93 JUMP JUMPDEST JUMPDEST PUSH1 0x20 DUP3 MUL SWAP1 POP SWAP2 SWAP1 POP JUMP JUMPDEST PUSH1 0x0 PUSH2 0x233 PUSH2 0x22E DUP5 PUSH2 0x1FA JUMP JUMPDEST PUSH2 0xF3 JUMP JUMPDEST SWAP1 POP DUP1 PUSH1 0x40 DUP5 MUL DUP4 ADD DUP6 DUP2 GT ISZERO PUSH2 0x24D JUMPI PUSH2 0x24C PUSH2 0x134 JUMP JUMPDEST JUMPDEST DUP4 JUMPDEST DUP2 DUP2 LT ISZERO PUSH2 0x276 JUMPI DUP1 PUSH2 0x262 DUP9 DUP3 PUSH2 0x1CF JUMP JUMPDEST DUP5 MSTORE PUSH1 0x20 DUP5 ADD SWAP4 POP POP PUSH1 0x40 DUP2 ADD SWAP1 POP PUSH2 0x24F JUMP JUMPDEST POP POP POP SWAP4 SWAP3 POP POP POP JUMP JUMPDEST PUSH1 0x0 DUP3 PUSH1 0x1F DUP4 ADD SLT PUSH2 0x295 JUMPI PUSH2 0x294 PUSH2 0x7D JUMP JUMPDEST JUMPDEST PUSH1 0x2 PUSH2 0x2A2 DUP5 DUP3 DUP6 PUSH2 0x220 JUMP JUMPDEST SWAP2 POP POP SWAP3 SWAP2 POP POP JUMP JUMPDEST PUSH1 0x0 PUSH8 0xFFFFFFFFFFFFFFFF DUP3 GT ISZERO PUSH2 0x2C6 JUMPI PUSH2 0x2C5 PUSH2 0x93 JUMP JUMPDEST JUMPDEST PUSH1 0x20 DUP3 MUL SWAP1 POP SWAP2 SWAP1 POP JUMP JUMPDEST PUSH1 0x0 PUSH2 0x2E4 PUSH2 0x2DF DUP5 PUSH2 0x2AB JUMP JUMPDEST PUSH2 0xF3 JUMP JUMPDEST SWAP1 POP DUP1 PUSH1 0x20 DUP5 MUL DUP4 ADD DUP6 DUP2 GT ISZERO PUSH2 0x2FE JUMPI PUSH2 0x2FD PUSH2 0x134 JUMP JUMPDEST JUMPDEST DUP4 JUMPDEST DUP2 DUP2 LT ISZERO PUSH2 0x327 JUMPI DUP1 PUSH2 0x313 DUP9 DUP3 PUSH2 0x15A JUMP JUMPDEST DUP5 MSTORE PUSH1 0x20 DUP5 ADD SWAP4 POP POP PUSH1 0x20 DUP2 ADD SWAP1 POP PUSH2 0x300 JUMP JUMPDEST POP POP POP SWAP4 SWAP3 POP POP POP JUMP JUMPDEST PUSH1 0x0 DUP3 PUSH1 0x1F DUP4 ADD SLT PUSH2 0x346 JUMPI PUSH2 0x345 PUSH2 0x7D JUMP JUMPDEST JUMPDEST PUSH1 0x3 PUSH2 0x353 DUP5 DUP3 DUP6 PUSH2 0x2D1 JUMP JUMPDEST SWAP2 POP POP SWAP3 SWAP2 POP POP JUMP JUMPDEST PUSH1 0x0 DUP1 PUSH1 0x0 DUP1 PUSH2 0x160 DUP6 DUP8 SUB SLT ISZERO PUSH2 0x377 JUMPI PUSH2 0x376 PUSH2 0x78 JUMP JUMPDEST JUMPDEST PUSH1 0x0 PUSH2 0x385 DUP8 DUP3 DUP9 ADD PUSH2 0x1CF JUMP JUMPDEST SWAP5 POP POP PUSH1 0x40 PUSH2 0x396 DUP8 DUP3 DUP9 ADD PUSH2 0x280 JUMP JUMPDEST SWAP4 POP POP PUSH1 0xC0 PUSH2 0x3A7 DUP8 DUP3 DUP9 ADD PUSH2 0x1CF JUMP JUMPDEST SWAP3 POP POP PUSH2 0x100 PUSH2 0x3B9 DUP8 DUP3 DUP9 ADD PUSH2 0x331 JUMP JUMPDEST SWAP2 POP POP SWAP3 SWAP6 SWAP2 SWAP5 POP SWAP3 POP JUMP JUMPDEST PUSH1 0x0 DUP2 ISZERO ISZERO SWAP1 POP SWAP2 SWAP1 POP JUMP JUMPDEST PUSH2 0x3DA DUP2 PUSH2 0x3C5 JUMP JUMPDEST DUP3 MSTORE POP POP JUMP JUMPDEST PUSH1 0x0 PUSH1 0x20 DUP3 ADD SWAP1 POP PUSH2 0x3F5 PUSH1 0x0 DUP4 ADD DUP5 PUSH2 0x3D1 JUMP JUMPDEST SWAP3 SWAP2 POP POP JUMP INVALID LOG2 PUSH5 0x6970667358 0x22 SLT KECCAK256 SGT PUSH6 0xD739C6CE7174 BASEFEE 0xC9 0xA5 SHL MLOAD 0xDA 0xB4 PUSH4 0xF35699E PUSH32 0x87CD2AB4E3EA2EFE8E96B464736F6C634300081C003300000000000000000000 "},"methodIdentifiers":{"verifyProof(uint256[2],uint256[2][2],uint256[2],uint256[3])":"11479fea"}}}}}