{
  "_format": "hh-sol-artifact-1",
  "contractName": "PovertyCheck",
  "sourceName": "contracts/PovertyCheck.sol",
  "abi": [
    {
      "inputs": [
        {
          "internalType": "address",
          "name": "_zkVerifierAddress",
          "type": "address"
        }
      ],
      "stateMutability": "nonpayable",
      "type": "constructor"
    },
    {
      "anonymous": false,
      "inputs": [
        {
          "indexed": true,
          "internalType": "address",
          "name": "donor",
          "type": "address"
        },
        {
          "indexed": false,
          "internalType": "uint256",
          "name": "amount",
          "type": "uint256"
        }
      ],
      "name": "DonationReceived",
      "type": "event"
    },
    {
      "anonymous": false,
      "inputs": [
        {
          "indexed": true,
          "internalType": "address",
          "name": "user",
          "type": "address"
        },
        {
          "indexed": true,
          "internalType": "bool",
          "name": "isValid",
          "type": "bool"
        }
      ],
      "name": "StatusVerified",
      "type": "event"
    },
    {
      "inputs": [],
      "name": "admin",
      "outputs": [
        {
          "internalType": "address",
          "name": "",
          "type": "address"
        }
      ],
      "stateMutability": "view",
      "type": "function"
    },
    {
      "inputs": [],
      "name": "donate",
      "outputs": [],
      "stateMutability": "payable",
      "type": "function"
    },
    {
      "inputs": [
        {
          "internalType": "address",
          "name": "_newVerifier",
          "type": "address"
        }
      ],
      "name": "updateVerifier",
      "outputs": [],
      "stateMutability": "nonpayable",
      "type": "function"
    },
    {
      "inputs": [
        {
          "internalType": "uint256[2]",
          "name": "a",
          "type": "uint256[2]"
        },
        {
          "internalType": "uint256[2][2]",
          "name": "b",
          "type": "uint256[2][2]"
        },
        {
          "internalType": "uint256[2]",
          "name": "c",
          "type": "uint256[2]"
        },
        {
          "internalType": "uint256[1]",
          "name": "input",
          "type": "uint256[1]"
        }
      ],
      "name": "verifyPovertyStatus",
      "outputs": [
        {
          "internalType": "bool",
          "name": "",
          "type": "bool"
        }
      ],
      "stateMutability": "nonpayable",
      "type": "function"
    },
    {
      "inputs": [],
      "name": "zkVerifierAddress",
      "outputs": [
        {
          "internalType": "address",
          "name": "",
          "type": "address"
        }
      ],
      "stateMutability": "view",
      "type": "function"
    },
    {
      "stateMutability": "payable",
      "type": "receive"
    }
  ],
  "bytecode": "0x608060405234801561001057600080fd5b50604051610ef0380380610ef08339818101604052810190610032919061011c565b336000806101000a81548173ffffffffffffffffffffffffffffffffffffffff021916908373ffffffffffffffffffffffffffffffffffffffff16021790555080600160006101000a81548173ffffffffffffffffffffffffffffffffffffffff021916908373ffffffffffffffffffffffffffffffffffffffff16021790555050610149565b600080fd5b600073ffffffffffffffffffffffffffffffffffffffff82169050919050565b60006100e9826100be565b9050919050565b6100f9816100de565b811461010457600080fd5b50565b600081519050610116816100f0565b92915050565b600060208284031215610132576101316100b9565b5b600061014084828501610107565b91505092915050565b610d98806101586000396000f3fe60806040526004361061004e5760003560e01c806397fc007c146100b2578063ba0d16cc146100db578063ed88c68e14610118578063f851a44014610122578063fcee2eb21461014d576100ad565b366100ad5760003411156100ab573373ffffffffffffffffffffffffffffffffffffffff167f264f630d9efa0d07053a31163641d9fcc0adafc9d9e76f1c37c2ce3a558d2c52346040516100a2919061047b565b60405180910390a25b005b600080fd5b3480156100be57600080fd5b506100d960048036038101906100d49190610503565b610178565b005b3480156100e757600080fd5b5061010260048036038101906100fd9190610805565b61024a565b60405161010f9190610889565b60405180910390f35b610120610385565b005b34801561012e57600080fd5b50610137610418565b60405161014491906108b3565b60405180910390f35b34801561015957600080fd5b5061016261043c565b60405161016f91906108b3565b60405180910390f35b60008054906101000a900473ffffffffffffffffffffffffffffffffffffffff1673ffffffffffffffffffffffffffffffffffffffff163373ffffffffffffffffffffffffffffffffffffffff1614610206576040517f08c379a00000000000000000000000000000000000000000000000000000000081526004016101fd90610951565b60405180910390fd5b80600160006101000a81548173ffffffffffffffffffffffffffffffffffffffff021916908373ffffffffffffffffffffffffffffffffffffffff16021790555050565b600080600160009054906101000a900473ffffffffffffffffffffffffffffffffffffffff1673ffffffffffffffffffffffffffffffffffffffff166343753b4d878787876040518563ffffffff1660e01b81526004016102ae9493929190610b9e565b602060405180830381865afa1580156102cb573d6000803e3d6000fd5b505050506040513d601f19601f820116820180604052508101906102ef9190610c11565b905080610331576040517f08c379a000000000000000000000000000000000000000000000000000000000815260040161032890610cb0565b60405180910390fd5b600115153373ffffffffffffffffffffffffffffffffffffffff167ff60a9d1820e8aaf0334efc61da87ca61ce80b88df9cc7a93e63365c7b48b022a60405160405180910390a36001915050949350505050565b600034116103c8576040517f08c379a00000000000000000000000000000000000000000000000000000000081526004016103bf90610d42565b60405180910390fd5b3373ffffffffffffffffffffffffffffffffffffffff167f264f630d9efa0d07053a31163641d9fcc0adafc9d9e76f1c37c2ce3a558d2c523460405161040e919061047b565b60405180910390a2565b60008054906101000a900473ffffffffffffffffffffffffffffffffffffffff1681565b600160009054906101000a900473ffffffffffffffffffffffffffffffffffffffff1681565b6000819050919050565b61047581610462565b82525050565b6000602082019050610490600083018461046c565b92915050565b6000604051905090565b600080fd5b600073ffffffffffffffffffffffffffffffffffffffff82169050919050565b60006104d0826104a5565b9050919050565b6104e0816104c5565b81146104eb57600080fd5b50565b6000813590506104fd816104d7565b92915050565b600060208284031215610519576105186104a0565b5b6000610527848285016104ee565b91505092915050565b600080fd5b6000601f19601f8301169050919050565b7f4e487b7100000000000000000000000000000000000000000000000000000000600052604160045260246000fd5b61057e82610535565b810181811067ffffffffffffffff8211171561059d5761059c610546565b5b80604052505050565b60006105b0610496565b90506105bc8282610575565b919050565b600067ffffffffffffffff8211156105dc576105db610546565b5b602082029050919050565b600080fd5b6105f581610462565b811461060057600080fd5b50565b600081359050610612816105ec565b92915050565b600061062b610626846105c1565b6105a6565b90508060208402830185811115610645576106446105e7565b5b835b8181101561066e578061065a8882610603565b845260208401935050602081019050610647565b5050509392505050565b600082601f83011261068d5761068c610530565b5b600261069a848285610618565b91505092915050565b600067ffffffffffffffff8211156106be576106bd610546565b5b602082029050919050565b60006106dc6106d7846106a3565b6105a6565b905080604084028301858111156106f6576106f56105e7565b5b835b8181101561071f578061070b8882610678565b8452602084019350506040810190506106f8565b5050509392505050565b600082601f83011261073e5761073d610530565b5b600261074b8482856106c9565b91505092915050565b600067ffffffffffffffff82111561076f5761076e610546565b5b602082029050919050565b600061078d61078884610754565b6105a6565b905080602084028301858111156107a7576107a66105e7565b5b835b818110156107d057806107bc8882610603565b8452602084019350506020810190506107a9565b5050509392505050565b600082601f8301126107ef576107ee610530565b5b60016107fc84828561077a565b91505092915050565b60008060008061012085870312156108205761081f6104a0565b5b600061082e87828801610678565b945050604061083f87828801610729565b93505060c061085087828801610678565b925050610100610862878288016107da565b91505092959194509250565b60008115159050919050565b6108838161086e565b82525050565b600060208201905061089e600083018461087a565b92915050565b6108ad816104c5565b82525050565b60006020820190506108c860008301846108a4565b92915050565b600082825260208201905092915050565b7f48616e79612061646d696e206b656c6f6d706f6b2079616e672062697361206d60008201527f656e677562616820696e69000000000000000000000000000000000000000000602082015250565b600061093b602b836108ce565b9150610946826108df565b604082019050919050565b6000602082019050818103600083015261096a8161092e565b9050919050565b600060029050919050565b600081905092915050565b6000819050919050565b61099a81610462565b82525050565b60006109ac8383610991565b60208301905092915050565b6000602082019050919050565b6109ce81610971565b6109d8818461097c565b92506109e382610987565b8060005b83811015610a145781516109fb87826109a0565b9650610a06836109b8565b9250506001810190506109e7565b505050505050565b600060029050919050565b600081905092915050565b6000819050919050565b600081905092915050565b610a5081610971565b610a5a8184610a3c565b9250610a6582610987565b8060005b83811015610a96578151610a7d87826109a0565b9650610a88836109b8565b925050600181019050610a69565b505050505050565b6000610aaa8383610a47565b60408301905092915050565b6000602082019050919050565b610acc81610a1c565b610ad68184610a27565b9250610ae182610a32565b8060005b83811015610b12578151610af98782610a9e565b9650610b0483610ab6565b925050600181019050610ae5565b505050505050565b600060019050919050565b600081905092915050565b6000819050919050565b6000602082019050919050565b610b5081610b1a565b610b5a8184610b25565b9250610b6582610b30565b8060005b83811015610b96578151610b7d87826109a0565b9650610b8883610b3a565b925050600181019050610b69565b505050505050565b600061012082019050610bb460008301876109c5565b610bc16040830186610ac3565b610bce60c08301856109c5565b610bdc610100830184610b47565b95945050505050565b610bee8161086e565b8114610bf957600080fd5b50565b600081519050610c0b81610be5565b92915050565b600060208284031215610c2757610c266104a0565b5b6000610c3584828501610bfc565b91505092915050565b7f42756b7469205a4b5020746964616b2076616c69642061746175206d616e697060008201527f756c617369210000000000000000000000000000000000000000000000000000602082015250565b6000610c9a6026836108ce565b9150610ca582610c3e565b604082019050919050565b60006020820190508181036000830152610cc981610c8d565b9050919050565b7f4e6f6d696e616c20646f6e617369206861727573206c6562696820626573617260008201527f2064617269203000000000000000000000000000000000000000000000000000602082015250565b6000610d2c6027836108ce565b9150610d3782610cd0565b604082019050919050565b60006020820190508181036000830152610d5b81610d1f565b905091905056fea2646970667358221220e09567f845a11ad58dac420f479c37a021b7ddb9543fbbec536bae5d4ee881ca64736f6c634300081c0033",
  "linkReferences": {},
  "deployedLinkReferences": {}
}