{
  "_format": "hh-sol-artifact-1",
  "contractName": "PovertyCheck",
  "sourceName": "contracts/PovertyCheck.sol",
  "abi": [
    {
      "inputs": [
        {
          "internalType": "address",
          "name": "_zkVerifierAddress",
          "type": "address"
        }
      ],
      "stateMutability": "nonpayable",
      "type": "constructor"
    },
    {
      "anonymous": false,
      "inputs": [
        {
          "indexed": true,
          "internalType": "address",
          "name": "user",
          "type": "address"
        },
        {
          "indexed": true,
          "internalType": "bool",
          "name": "isValid",
          "type": "bool"
        }
      ],
      "name": "StatusVerified",
      "type": "event"
    },
    {
      "inputs": [],
      "name": "admin",
      "outputs": [
        {
          "internalType": "address",
          "name": "",
          "type": "address"
        }
      ],
      "stateMutability": "view",
      "type": "function"
    },
    {
      "inputs": [
        {
          "internalType": "address",
          "name": "_newVerifier",
          "type": "address"
        }
      ],
      "name": "updateVerifier",
      "outputs": [],
      "stateMutability": "nonpayable",
      "type": "function"
    },
    {
      "inputs": [
        {
          "internalType": "uint256[2]",
          "name": "a",
          "type": "uint256[2]"
        },
        {
          "internalType": "uint256[2][2]",
          "name": "b",
          "type": "uint256[2][2]"
        },
        {
          "internalType": "uint256[2]",
          "name": "c",
          "type": "uint256[2]"
        },
        {
          "internalType": "uint256[1]",
          "name": "input",
          "type": "uint256[1]"
        }
      ],
      "name": "verifyPovertyStatus",
      "outputs": [
        {
          "internalType": "bool",
          "name": "",
          "type": "bool"
        }
      ],
      "stateMutability": "nonpayable",
      "type": "function"
    },
    {
      "inputs": [],
      "name": "zkVerifierAddress",
      "outputs": [
        {
          "internalType": "address",
          "name": "",
          "type": "address"
        }
      ],
      "stateMutability": "view",
      "type": "function"
    }
  ],
  "bytecode": "0x608060405234801561001057600080fd5b50604051610d02380380610d028339818101604052810190610032919061011c565b336000806101000a81548173ffffffffffffffffffffffffffffffffffffffff021916908373ffffffffffffffffffffffffffffffffffffffff16021790555080600160006101000a81548173ffffffffffffffffffffffffffffffffffffffff021916908373ffffffffffffffffffffffffffffffffffffffff16021790555050610149565b600080fd5b600073ffffffffffffffffffffffffffffffffffffffff82169050919050565b60006100e9826100be565b9050919050565b6100f9816100de565b811461010457600080fd5b50565b600081519050610116816100f0565b92915050565b600060208284031215610132576101316100b9565b5b600061014084828501610107565b91505092915050565b610baa806101586000396000f3fe608060405234801561001057600080fd5b506004361061004c5760003560e01c806397fc007c14610051578063ba0d16cc1461006d578063f851a4401461009d578063fcee2eb2146100bb575b600080fd5b61006b6004803603810190610066919061039d565b6100d9565b005b610087600480360381019061008291906106a9565b6101ab565b604051610094919061072d565b60405180910390f35b6100a56102e6565b6040516100b29190610757565b60405180910390f35b6100c361030a565b6040516100d09190610757565b60405180910390f35b60008054906101000a900473ffffffffffffffffffffffffffffffffffffffff1673ffffffffffffffffffffffffffffffffffffffff163373ffffffffffffffffffffffffffffffffffffffff1614610167576040517f08c379a000000000000000000000000000000000000000000000000000000000815260040161015e906107f5565b60405180910390fd5b80600160006101000a81548173ffffffffffffffffffffffffffffffffffffffff021916908373ffffffffffffffffffffffffffffffffffffffff16021790555050565b600080600160009054906101000a900473ffffffffffffffffffffffffffffffffffffffff1673ffffffffffffffffffffffffffffffffffffffff166343753b4d878787876040518563ffffffff1660e01b815260040161020f9493929190610a42565b602060405180830381865afa15801561022c573d6000803e3d6000fd5b505050506040513d601f19601f820116820180604052508101906102509190610ab5565b905080610292576040517f08c379a000000000000000000000000000000000000000000000000000000000815260040161028990610b54565b60405180910390fd5b600115153373ffffffffffffffffffffffffffffffffffffffff167ff60a9d1820e8aaf0334efc61da87ca61ce80b88df9cc7a93e63365c7b48b022a60405160405180910390a36001915050949350505050565b60008054906101000a900473ffffffffffffffffffffffffffffffffffffffff1681565b600160009054906101000a900473ffffffffffffffffffffffffffffffffffffffff1681565b6000604051905090565b600080fd5b600073ffffffffffffffffffffffffffffffffffffffff82169050919050565b600061036a8261033f565b9050919050565b61037a8161035f565b811461038557600080fd5b50565b60008135905061039781610371565b92915050565b6000602082840312156103b3576103b261033a565b5b60006103c184828501610388565b91505092915050565b600080fd5b6000601f19601f8301169050919050565b7f4e487b7100000000000000000000000000000000000000000000000000000000600052604160045260246000fd5b610418826103cf565b810181811067ffffffffffffffff82111715610437576104366103e0565b5b80604052505050565b600061044a610330565b9050610456828261040f565b919050565b600067ffffffffffffffff821115610476576104756103e0565b5b602082029050919050565b600080fd5b6000819050919050565b61049981610486565b81146104a457600080fd5b50565b6000813590506104b681610490565b92915050565b60006104cf6104ca8461045b565b610440565b905080602084028301858111156104e9576104e8610481565b5b835b8181101561051257806104fe88826104a7565b8452602084019350506020810190506104eb565b5050509392505050565b600082601f830112610531576105306103ca565b5b600261053e8482856104bc565b91505092915050565b600067ffffffffffffffff821115610562576105616103e0565b5b602082029050919050565b600061058061057b84610547565b610440565b9050806040840283018581111561059a57610599610481565b5b835b818110156105c357806105af888261051c565b84526020840193505060408101905061059c565b5050509392505050565b600082601f8301126105e2576105e16103ca565b5b60026105ef84828561056d565b91505092915050565b600067ffffffffffffffff821115610613576106126103e0565b5b602082029050919050565b600061063161062c846105f8565b610440565b9050806020840283018581111561064b5761064a610481565b5b835b81811015610674578061066088826104a7565b84526020840193505060208101905061064d565b5050509392505050565b600082601f830112610693576106926103ca565b5b60016106a084828561061e565b91505092915050565b60008060008061012085870312156106c4576106c361033a565b5b60006106d28782880161051c565b94505060406106e3878288016105cd565b93505060c06106f48782880161051c565b9250506101006107068782880161067e565b91505092959194509250565b60008115159050919050565b61072781610712565b82525050565b6000602082019050610742600083018461071e565b92915050565b6107518161035f565b82525050565b600060208201905061076c6000830184610748565b92915050565b600082825260208201905092915050565b7f48616e79612061646d696e206b656c6f6d706f6b2079616e672062697361206d60008201527f656e677562616820696e69000000000000000000000000000000000000000000602082015250565b60006107df602b83610772565b91506107ea82610783565b604082019050919050565b6000602082019050818103600083015261080e816107d2565b9050919050565b600060029050919050565b600081905092915050565b6000819050919050565b61083e81610486565b82525050565b60006108508383610835565b60208301905092915050565b6000602082019050919050565b61087281610815565b61087c8184610820565b92506108878261082b565b8060005b838110156108b857815161089f8782610844565b96506108aa8361085c565b92505060018101905061088b565b505050505050565b600060029050919050565b600081905092915050565b6000819050919050565b600081905092915050565b6108f481610815565b6108fe81846108e0565b92506109098261082b565b8060005b8381101561093a5781516109218782610844565b965061092c8361085c565b92505060018101905061090d565b505050505050565b600061094e83836108eb565b60408301905092915050565b6000602082019050919050565b610970816108c0565b61097a81846108cb565b9250610985826108d6565b8060005b838110156109b657815161099d8782610942565b96506109a88361095a565b925050600181019050610989565b505050505050565b600060019050919050565b600081905092915050565b6000819050919050565b6000602082019050919050565b6109f4816109be565b6109fe81846109c9565b9250610a09826109d4565b8060005b83811015610a3a578151610a218782610844565b9650610a2c836109de565b925050600181019050610a0d565b505050505050565b600061012082019050610a586000830187610869565b610a656040830186610967565b610a7260c0830185610869565b610a806101008301846109eb565b95945050505050565b610a9281610712565b8114610a9d57600080fd5b50565b600081519050610aaf81610a89565b92915050565b600060208284031215610acb57610aca61033a565b5b6000610ad984828501610aa0565b91505092915050565b7f42756b7469205a4b5020746964616b2076616c69642061746175206d616e697060008201527f756c617369210000000000000000000000000000000000000000000000000000602082015250565b6000610b3e602683610772565b9150610b4982610ae2565b604082019050919050565b60006020820190508181036000830152610b6d81610b31565b905091905056fea2646970667358221220b79baa333777ab01cd536bcd643b6e72283fa834e2f2d774a8c7cf2c0551e81864736f6c634300081c0033",
  "linkReferences": {},
  "deployedLinkReferences": {}
}