{
  "_format": "hh3-artifact-1",
  "contractName": "PovertyCheck",
  "sourceName": "contracts/PovertyCheck.sol",
  "abi": [
    {
      "inputs": [
        {
          "internalType": "address",
          "name": "_zkVerifierAddress",
          "type": "address"
        }
      ],
      "stateMutability": "nonpayable",
      "type": "constructor"
    },
    {
      "anonymous": false,
      "inputs": [
        {
          "indexed": true,
          "internalType": "address",
          "name": "user",
          "type": "address"
        },
        {
          "indexed": true,
          "internalType": "bool",
          "name": "isValid",
          "type": "bool"
        }
      ],
      "name": "StatusVerified",
      "type": "event"
    },
    {
      "inputs": [],
      "name": "admin",
      "outputs": [
        {
          "internalType": "address",
          "name": "",
          "type": "address"
        }
      ],
      "stateMutability": "view",
      "type": "function"
    },
    {
      "inputs": [
        {
          "internalType": "address",
          "name": "_newVerifier",
          "type": "address"
        }
      ],
      "name": "updateVerifier",
      "outputs": [],
      "stateMutability": "nonpayable",
      "type": "function"
    },
    {
      "inputs": [
        {
          "internalType": "uint256[2]",
          "name": "a",
          "type": "uint256[2]"
        },
        {
          "internalType": "uint256[2][2]",
          "name": "b",
          "type": "uint256[2][2]"
        },
        {
          "internalType": "uint256[2]",
          "name": "c",
          "type": "uint256[2]"
        },
        {
          "internalType": "uint256[1]",
          "name": "input",
          "type": "uint256[1]"
        }
      ],
      "name": "verifyPovertyStatus",
      "outputs": [
        {
          "internalType": "bool",
          "name": "",
          "type": "bool"
        }
      ],
      "stateMutability": "nonpayable",
      "type": "function"
    },
    {
      "inputs": [],
      "name": "zkVerifierAddress",
      "outputs": [
        {
          "internalType": "address",
          "name": "",
          "type": "address"
        }
      ],
      "stateMutability": "view",
      "type": "function"
    }
  ],
  "bytecode": "0x608060405234801561000f575f5ffd5b5060405161090038038061090083398181016040528101906100319190610114565b805f5f6101000a81548173ffffffffffffffffffffffffffffffffffffffff021916908373ffffffffffffffffffffffffffffffffffffffff1602179055503360015f6101000a81548173ffffffffffffffffffffffffffffffffffffffff021916908373ffffffffffffffffffffffffffffffffffffffff1602179055505061013f565b5f5ffd5b5f73ffffffffffffffffffffffffffffffffffffffff82169050919050565b5f6100e3826100ba565b9050919050565b6100f3816100d9565b81146100fd575f5ffd5b50565b5f8151905061010e816100ea565b92915050565b5f60208284031215610129576101286100b6565b5b5f61013684828501610100565b91505092915050565b6107b48061014c5f395ff3fe608060405234801561000f575f5ffd5b506004361061004a575f3560e01c806397fc007c1461004e578063ba0d16cc1461006a578063f851a4401461009a578063fcee2eb2146100b8575b5f5ffd5b61006860048036038101906100639190610384565b6100d6565b005b610084600480360381019061007f9190610416565b6101a7565b6040516100919190610496565b60405180910390f35b6100a26102dd565b6040516100af91906104be565b60405180910390f35b6100c0610302565b6040516100cd91906104be565b60405180910390f35b60015f9054906101000a900473ffffffffffffffffffffffffffffffffffffffff1673ffffffffffffffffffffffffffffffffffffffff163373ffffffffffffffffffffffffffffffffffffffff1614610165576040517f08c379a000000000000000000000000000000000000000000000000000000000815260040161015c90610557565b60405180910390fd5b805f5f6101000a81548173ffffffffffffffffffffffffffffffffffffffff021916908373ffffffffffffffffffffffffffffffffffffffff16021790555050565b5f5f5f5f9054906101000a900473ffffffffffffffffffffffffffffffffffffffff1673ffffffffffffffffffffffffffffffffffffffff166343753b4d878787876040518563ffffffff1660e01b81526004016102089493929190610656565b602060405180830381865afa158015610223573d5f5f3e3d5ffd5b505050506040513d601f19601f8201168201806040525081019061024791906106c5565b905080610289576040517f08c379a000000000000000000000000000000000000000000000000000000000815260040161028090610760565b60405180910390fd5b600115153373ffffffffffffffffffffffffffffffffffffffff167ff60a9d1820e8aaf0334efc61da87ca61ce80b88df9cc7a93e63365c7b48b022a60405160405180910390a36001915050949350505050565b60015f9054906101000a900473ffffffffffffffffffffffffffffffffffffffff1681565b5f5f9054906101000a900473ffffffffffffffffffffffffffffffffffffffff1681565b5f5ffd5b5f73ffffffffffffffffffffffffffffffffffffffff82169050919050565b5f6103538261032a565b9050919050565b61036381610349565b811461036d575f5ffd5b50565b5f8135905061037e8161035a565b92915050565b5f6020828403121561039957610398610326565b5b5f6103a684828501610370565b91505092915050565b5f5ffd5b5f819050826020600202820111156103ce576103cd6103af565b5b92915050565b5f819050826040600202820111156103ef576103ee6103af565b5b92915050565b5f819050826020600102820111156104105761040f6103af565b5b92915050565b5f5f5f5f610120858703121561042f5761042e610326565b5b5f61043c878288016103b3565b945050604061044d878288016103d4565b93505060c061045e878288016103b3565b925050610100610470878288016103f5565b91505092959194509250565b5f8115159050919050565b6104908161047c565b82525050565b5f6020820190506104a95f830184610487565b92915050565b6104b881610349565b82525050565b5f6020820190506104d15f8301846104af565b92915050565b5f82825260208201905092915050565b7f48616e79612061646d696e206b656c6f6d706f6b2079616e672062697361206d5f8201527f656e677562616820696e69000000000000000000000000000000000000000000602082015250565b5f610541602b836104d7565b915061054c826104e7565b604082019050919050565b5f6020820190508181035f83015261056e81610535565b9050919050565b82818337505050565b61058a60408383610575565b5050565b5f60029050919050565b5f81905092915050565b5f819050919050565b6105b760408383610575565b5050565b5f6105c683836105ab565b60408301905092915050565b5f82905092915050565b5f604082019050919050565b6105f18161058e565b6105fb8184610598565b9250610606826105a2565b805f5b8381101561063e5761061b82846105d2565b61062587826105bb565b9650610630836105dc565b925050600181019050610609565b505050505050565b61065260208383610575565b5050565b5f6101208201905061066a5f83018761057e565b61067760408301866105e8565b61068460c083018561057e565b610692610100830184610646565b95945050505050565b6106a48161047c565b81146106ae575f5ffd5b50565b5f815190506106bf8161069b565b92915050565b5f602082840312156106da576106d9610326565b5b5f6106e7848285016106b1565b91505092915050565b7f42756b7469205a4b5020746964616b2076616c69642061746175206d616e69705f8201527f756c617469662100000000000000000000000000000000000000000000000000602082015250565b5f61074a6027836104d7565b9150610755826106f0565b604082019050919050565b5f6020820190508181035f8301526107778161073e565b905091905056fea2646970667358221220f5ef8857f161a94a28d477191db8b45c566a8df4b2239edc81f3c995e35e63b064736f6c634300081c0033",
  "linkReferences": {},
  "deployedLinkReferences": {},
  "immutableReferences": {},
  "inputSourceName": "project/contracts/PovertyCheck.sol",
  "buildInfoId": "solc-0_8_28-5de0cb2dc313b714b0aea23621422c580f78e105"
}