{
  "_format": "hh-sol-artifact-1",
  "contractName": "Groth16Verifier",
  "sourceName": "contracts/verifier.sol",
  "abi": [
    {
      "inputs": [
        {
          "internalType": "uint256[2]",
          "name": "_pA",
          "type": "uint256[2]"
        },
        {
          "internalType": "uint256[2][2]",
          "name": "_pB",
          "type": "uint256[2][2]"
        },
        {
          "internalType": "uint256[2]",
          "name": "_pC",
          "type": "uint256[2]"
        },
        {
          "internalType": "uint256[3]",
          "name": "_pubSignals",
          "type": "uint256[3]"
        }
      ],
      "name": "verifyProof",
      "outputs": [
        {
          "internalType": "bool",
          "name": "",
          "type": "bool"
        }
      ],
      "stateMutability": "view",
      "type": "function"
    }
  ],
  "bytecode": "0x6080604052348015600f57600080fd5b506104318061001f6000396000f3fe608060405234801561001057600080fd5b506004361061002b5760003560e01c806311479fea14610030575b600080fd5b61004a6004803603810190610045919061035c565b610060565b60405161005791906103e0565b60405180910390f35b600060019050949350505050565b6000604051905090565b600080fd5b600080fd5b6000601f19601f8301169050919050565b7f4e487b7100000000000000000000000000000000000000000000000000000000600052604160045260246000fd5b6100cb82610082565b810181811067ffffffffffffffff821117156100ea576100e9610093565b5b80604052505050565b60006100fd61006e565b905061010982826100c2565b919050565b600067ffffffffffffffff82111561012957610128610093565b5b602082029050919050565b600080fd5b6000819050919050565b61014c81610139565b811461015757600080fd5b50565b60008135905061016981610143565b92915050565b600061018261017d8461010e565b6100f3565b9050806020840283018581111561019c5761019b610134565b5b835b818110156101c557806101b1888261015a565b84526020840193505060208101905061019e565b5050509392505050565b600082601f8301126101e4576101e361007d565b5b60026101f184828561016f565b91505092915050565b600067ffffffffffffffff82111561021557610214610093565b5b602082029050919050565b600061023361022e846101fa565b6100f3565b9050806040840283018581111561024d5761024c610134565b5b835b81811015610276578061026288826101cf565b84526020840193505060408101905061024f565b5050509392505050565b600082601f8301126102955761029461007d565b5b60026102a2848285610220565b91505092915050565b600067ffffffffffffffff8211156102c6576102c5610093565b5b602082029050919050565b60006102e46102df846102ab565b6100f3565b905080602084028301858111156102fe576102fd610134565b5b835b818110156103275780610313888261015a565b845260208401935050602081019050610300565b5050509392505050565b600082601f8301126103465761034561007d565b5b60036103538482856102d1565b91505092915050565b600080600080610160858703121561037757610376610078565b5b6000610385878288016101cf565b945050604061039687828801610280565b93505060c06103a7878288016101cf565b9250506101006103b987828801610331565b91505092959194509250565b60008115159050919050565b6103da816103c5565b82525050565b60006020820190506103f560008301846103d1565b9291505056fea26469706673582212201365d739c6ce717448c9a51b51dab4630f35699e7f87cd2ab4e3ea2efe8e96b464736f6c634300081c0033",
  "linkReferences": {},
  "deployedLinkReferences": {}
}